:100000000C9434000C9451000C9451000C94510049
:100010000C9402020C9451000C9451000C94510069
:100020000C9451000C9451000C9451000C9451000C
:100030000C9451000C9451000C9451000C945100FC
:100040000C9451000C9451000C9451000C945100EC
:100050000C9451000C9451000C9451000C945100DC
:100060000C9451000C94510011241FBECFEFD4E02A
:10007000DEBFCDBF11E0A0E0B1E0E2EDFCE002C0E8
:1000800005900D92AC35B107D9F721E0ACE5B1E0B0
:1000900001C01D92A336B207E1F70E9450020C94F2
:1000A00067060C94000014B85F985D985E9A5F9A9A
:1000B0001F99FECF5F985E988FEF84B908955F987F
:1000C0005D9A5F9A85B95F980C9453005F985F9A28
:1000D00085B95F980C9453005F985F9A95B1282F6B
:1000E000207F9F70922B95B95F985F985F9A25B19A
:1000F00030E1839FC0011124922F9F70892B85B915
:100100005F980C9453000C946C005F985D9A5F9A12
:1001100095B1282F207F9F70922B95B99BB19F7529
:100120009BB95D9A5F9A25B130E1839FC00111248C
:10013000922F9F70892B85B98BB18F758BB90C94D9
:10014000530090E4699F800D112480680C946C002A
:10015000CF93DF93EC018991882319F00E945F000F
:10016000FACFDF91CF910895CF93DF93EC0189917E
:10017000882319F00E948500FACFDF91CF9108956E
:100180000C94B400CF93DF93EC01862F642F0E9470
:10019000A100CE01DF91CF910C94B4008FEF8AB90A
:1001A00084B988E20E94660088E20C946C00E091B9
:1001B0005D01F0E0E050FF4F80818F5F8A330CF0EB
:1001C00080E3808341E060E080E091E00E94C20033
:1001D00061E080915D010C94A100E0915D01F0E08F
:1001E000E050FF4F8081815080330CF489E380839D
:1001F00041E060E080E091E00E94C20061E0809117
:100200005D010C94A100E0E0F1E0AEE5B1E080E03A
:1002100090E031912D91321301C0019621E0E4303C
:10022000F207B9F70895AEE5B1E080E090E02D91D6
:10023000E0E0F1E03191321302C0019604C031E0F8
:10024000E430F307B9F721E0A236B20781F7089549
:1002500081E00E94830041E060E080E091E00E9444
:10026000C20061E080915D010E94A10040E060E079
:1002700089E091E00E94C20061E080915D010E94EE
:10028000A10040E060E089E191E00E94C20061E0ED
:1002900080915D010C94A100CF93DF930E941C0319
:1002A00068EE73E00E94A8029F938F938AE291E028
:1002B0009F938F93CEE5D1E0DF93CF930E942C03E1
:1002C0001C820F900F900F900F900F900F90DF9166
:1002D000CF910895CF92DF92EF92FF920F931F93E9
:1002E000CF93DF93CDB7DEB764970FB6F894DEBF38
:1002F0000FBECDBF81E080935C010E9403017C01B1
:100300000E9413018C0124E0E216F10491F481E0D3
:100310000E94830040E060E080E391E00E94C20020
:1003200041E060E08BE391E00E94C2000E944C013A
:1003300030C0FF92EF9289E491E09F938F936E011A
:100340008BE0C80ED11CDF92CF920E942C03980143
:100350002E193F093F932F9383E591E09F938F934D
:100360008E010F5F1F4F1F930F930E942C0381E09C
:100370000E94830040E060E0C6010E94C20041E0AC
:1003800060E0C8010E94C2000FB6F894DEBF0FBE45
:10039000CDBF9FEF21EE84E0915020408040E1F7F7
:1003A00000C0000086B18770E9F39FEF21EE84E082
:1003B000915020408040E1F700C0000010925C01A5
:1003C0000E94280164960FB6F894DEBF0FBECDBF21
:1003D000DF91CF911F910F91FF90EF90DF90CF9021
:1003E000089580915D018F5F80935D0161E00E94BF
:1003F000A10080915D01843020F010925D010C9489
:100400006A0108951F920F920FB60F9211242F9335
:100410003F934F935F936F937F938F939F93AF938C
:10042000BF93EF93FF938FB78F778FBF86B1909174
:100430005C01911110C08770823039F0843041F036
:10044000813089F40E94ED000EC00E94D7000BC0DD
:100450000E94F10108C010925C0110925D0161E000
:1004600080E00E94A1002FEF81EE94E021508040B7
:100470009040E1F700C000008FB780688FBFFF9108
:10048000EF91BF91AF919F918F917F916F915F910C
:100490004F913F912F910F900FBE0F901F90189585
:1004A0008FB780688FBF82E08093680087E0809379
:1004B0006C000E94CE0087B1887F87B98FE00E94D0
:1004C000830081E00E94830082E00E94830080E03C
:1004D00090E00E9421030E944C0180915C018111F7
:1004E000FECF81E00E94830041E060E080E091E087
:1004F0000E94C20061E080915D010E94A10040E085
:1005000060E089E091E00E94C20061E080915D01BD
:100510000E94A1002FEF89E698E121508040904091
:10052000E1F700C0000040E060E089E191E00E9456
:10053000C20061E080915D010E94A1002FEF83E283
:1005400094EF215080409040E1F700C00000C5CFFB
:1005500097FB072E16F4009407D077FD09D00E9470
:10056000BC0207FC05D03EF4909581959F4F0895FD
:10057000709561957F4F0895AA1BBB1B51E107C081
:10058000AA1FBB1FA617B70710F0A61BB70B881F23
:10059000991F5A95A9F780959095BC01CD010895B2
:1005A0008F929F92AF92BF92CF92DF92EF92FF9283
:1005B000CF93DF93EC01688179818A819B816115FA
:1005C00071058105910521F464E279ED8BE597E0F1
:1005D0002DE133EF41E050E00E94CD0549015A0181
:1005E0009B01AC01A7EAB1E40E94EC056B017C0120
:1005F000ACEEB4EFA50194010E94FA05DC01CB0139
:100600008C0D9D1DAE1DBF1DB7FF03C00197A10935
:10061000B04888839983AA83BB839F77DF91CF916A
:10062000FF90EF90DF90CF90BF90AF909F908F9012
:1006300008950E94D002089585E091E00E94D002C2
:100640000895A0E0B0E08093050190930601A09387
:100650000701B09308010895AEE0B0E0E2E3F3E0F3
:100660000C940D060D891E8986E08C831A830983FC
:100670008FEF9FE79E838D83AE01475E5F4F6F894B
:10068000788DCE0101960E944F032F813885F801A5
:10069000E20FF31F10822E96E4E00C942906ACE0E2
:1006A000B0E0E5E5F3E00C94FF057C016B018A0105
:1006B000FC0117821682838181FFBDC1CE010196A4
:1006C0004C01F7019381F60193FD859193FF819190
:1006D0006F01882309F4ABC1853239F493FD85910C
:1006E00093FF81916F01853229F4B70190E00E9458
:1006F0003705E7CF512C312C20E02032A0F48B328B
:1007000069F030F4803259F0833269F420612CC0F2
:100710008D3239F0803339F4216026C022602460A4
:1007200023C0286021C027FD27C030ED380F3A30A4
:1007300078F426FF06C0FAE05F9E300D1124532E98
:1007400013C08AE0389E300D1124332E20620CC075
:100750008E3221F426FD6BC1206406C08C3611F464
:10076000206802C0883641F4F60193FD859193FF1D
:1007700081916F018111C1CF982F9F7D9554933046
:1007800028F40C5F1F4FFFE3F9830DC0833631F06F
:10079000833771F0833509F05BC022C0F801808196
:1007A00089830E5F1F4F44244394512C540115C07C
:1007B0003801F2E06F0E711CF801A080B18026FFB5
:1007C00003C0652D70E002C06FEF7FEFC5012C877D
:1007D0000E942C052C0183012C852F77222E17C017
:1007E0003801F2E06F0E711CF801A080B18026FF85
:1007F00003C0652D70E002C06FEF7FEFC5012C874D
:100800000E9421052C012C852068222E830123FCC7
:100810001BC0832D90E048165906B0F4B70180E262
:1008200090E00E9437053A94F4CFF50127FC8591BA
:1008300027FE81915F01B70190E00E9437053110DA
:100840003A94F1E04F1A51084114510471F7E5C090
:10085000843611F0893639F5F80127FF07C0608129
:100860007181828193810C5F1F4F08C0608171810B
:10087000072E000C880B990B0E5F1F4F2F76722EE0
:1008800097FF09C090958095709561957F4F8F4F28
:100890009F4F2068722E2AE030E0A4010E946F056D
:1008A000A82EA81844C0853729F42F7EB22E2AE03E
:1008B00030E025C0F22FF97FBF2E8F36C1F018F43B
:1008C000883579F0B4C0803719F0883721F0AFC08F
:1008D0002F2F2061B22EB4FE0DC08B2D8460B82E58
:1008E00009C024FF0AC09F2F9660B92E06C028E0D9
:1008F00030E005C020E130E002C020E132E0F80144
:10090000B7FE07C060817181828193810C5F1F4FA8
:1009100006C06081718180E090E00E5F1F4FA401EE
:100920000E946F05A82EA818FB2DFF777F2E76FE5C
:100930000BC0372D3E7FA51450F474FE0AC072FC24
:1009400008C0372D3E7E05C0BA2C372D03C0BA2C07
:1009500001C0B52C34FF0DC0FE01EA0DF11D8081F0
:10096000803311F4397E09C032FF06C0B394B394CA
:1009700004C0832F867809F0B39433FD13C030FF91
:1009800006C05A2CB31418F4530C5B18B32CB314D0
:1009900068F4B70180E290E03C870E943705B39489
:1009A0003C85F5CFB31410F43B1801C0312C34FF53
:1009B00012C0B70180E390E03C870E9437053C8578
:1009C00032FF17C031FD03C088E790E002C088E520
:1009D00090E0B7010CC0832F867859F031FF02C038
:1009E0008BE201C080E237FD8DE2B70190E00E940A
:1009F0003705A51438F4B70180E390E00E9437056D
:100A00005A94F7CFAA94F401EA0DF11D8081B70141
:100A100090E00E943705A110F5CF332009F451CEA4
:100A2000B70180E290E00E9437053A94F6CFF701D3
:100A30008681978102C08FEF9FEF2C96E2E10C94A4
:100A40001B06FC010590615070400110D8F780959D
:100A500090958E0F9F1F0895FC016150704001908A
:100A60000110D8F7809590958E0F9F1F08950F93D2
:100A70001F93CF93DF93FB01238121FD03C08FEFF1
:100A80009FEF28C022FF16C04681578124813581FF
:100A90004217530744F4A081B1819D012F5F3F4F5E
:100AA000318320838C93268137812F5F3F4F37839B
:100AB000268310C0EB01092F182F0084F185E02D4B
:100AC0000995892BE1F68E819F8101969F838E8304
:100AD000812F902FDF91CF911F910F910895FA01EF
:100AE000AA27283051F1203181F1E8946F936E7F6D
:100AF0006E5F7F4F8F4F9F4FAF4FB1E03ED0B4E05E
:100B00003CD0670F781F891F9A1FA11D680F791F9E
:100B10008A1F911DA11D6A0F711D811D911DA11DAF
:100B200020D009F468943F912AE0269F11243019BF
:100B3000305D3193DEF6CF010895462F4770405D5A
:100B40004193B3E00FD0C9F7F6CF462F4F70405D09
:100B50004A3318F0495D31FD4052419302D0A9F764
:100B6000EACFB4E0A6959795879577956795BA955E
:100B7000C9F700976105710508959B01AC010A2E24
:100B800006945795479537952795BA95C9F7620FFB
:100B9000731F841F951FA01D0895052E97FB1EF43B
:100BA00000940E94E40557FD07D00E94360607FC1A
:100BB00003D04EF40C94E405509540953095219562
:100BC0003F4F4F4F5F4F0895909580957095619579
:100BD0007F4F8F4F9F4F08950E945806A59F900DFD
:100BE000B49F900DA49F800D911D11240895B7FF0F
:100BF0000C94EC050E94EC05821B930B08952F9238
:100C00003F924F925F926F927F928F929F92AF929C
:100C1000BF92CF92DF92EF92FF920F931F93CF93E9
:100C2000DF93CDB7DEB7CA1BDB0B0FB6F894DEBF80
:100C30000FBECDBF09942A88398848885F846E84A6
:100C40007D848C849B84AA84B984C884DF80EE80F0
:100C5000FD800C811B81AA81B981CE0FD11D0FB6F9
:100C6000F894DEBF0FBECDBFED010895A1E21A2EAC
:100C7000AA1BBB1BFD010DC0AA1FBB1FEE1FFF1F40
:100C8000A217B307E407F50720F0A21BB30BE40B90
:100C9000F50B661F771F881F991F1A9469F76095D7
:100CA0007095809590959B01AC01BD01CF01089591
:100CB000A29FB001B39FC001A39F700D811D11249D
:100CC000911DB29F700D811D1124911D0895F894FE
:020CD000FFCF54
:100CD20030303030000100000056616361732065DE
:100CE20020546F75726F73210041636572746520C1
:100CF2006F206E756D65726F210025302E34640091
:100D02005061726162656E73212100566F636520C6
:100D120061636572746F752100256420546F75726A
:0C0D22006F73002564205661636173004C
:00000001FF
